{
  "contracts/CoreLoanPlatform.sol": {
    "CoreLoanPlatform": {
      "abi": [
        {
          "inputs": [],
          "name": "BORROWABLE_RATIO",
          "outputs": [
            {
              "internalType": "uint256",
              "name": "",
              "type": "uint256"
            }
          ],
          "stateMutability": "view",
          "type": "function"
        },
        {
          "inputs": [],
          "name": "COLLATERAL_RATIO",
          "outputs": [
            {
              "internalType": "uint256",
              "name": "",
              "type": "uint256"
            }
          ],
          "stateMutability": "view",
          "type": "function"
        },
        {
          "inputs": [],
          "name": "INTEREST_RATE",
          "outputs": [
            {
              "internalType": "uint256",
              "name": "",
              "type": "uint256"
            }
          ],
          "stateMutability": "view",
          "type": "function"
        },
        {
          "inputs": [],
          "name": "LOAN_DURATION",
          "outputs": [
            {
              "internalType": "uint256",
              "name": "",
              "type": "uint256"
            }
          ],
          "stateMutability": "view",
          "type": "function"
        }
      ],
      "evm": {
        "bytecode": {
          "linkReferences": {},
          "object": "608060405260008055600060015534801561001957600080fd5b5060b1806100286000396000f3fe6080604052348015600f57600080fd5b506004361060465760003560e01c80635b72a33a14604b5780636e35f124146064578063d9e69a0514606b578063e02a4dfd146072575b600080fd5b6052600581565b60405190815260200160405180910390f35b6052605081565b6052609681565b605262278d008156fea2646970667358221220d0765aef5c53c815aa2561427af4ebc79c3088b03de7d5cff70b7f933435ef4664736f6c63430008180033",
          "opcodes": "PUSH1 0x80 PUSH1 0x40 MSTORE PUSH1 0x0 DUP1 SSTORE PUSH1 0x0 PUSH1 0x1 SSTORE CALLVALUE DUP1 ISZERO PUSH2 0x19 JUMPI PUSH1 0x0 DUP1 REVERT JUMPDEST POP PUSH1 0xB1 DUP1 PUSH2 0x28 PUSH1 0x0 CODECOPY PUSH1 0x0 RETURN INVALID PUSH1 0x80 PUSH1 0x40 MSTORE CALLVALUE DUP1 ISZERO PUSH1 0xF JUMPI PUSH1 0x0 DUP1 REVERT JUMPDEST POP PUSH1 0x4 CALLDATASIZE LT PUSH1 0x46 JUMPI PUSH1 0x0 CALLDATALOAD PUSH1 0xE0 SHR DUP1 PUSH4 0x5B72A33A EQ PUSH1 0x4B JUMPI DUP1 PUSH4 0x6E35F124 EQ PUSH1 0x64 JUMPI DUP1 PUSH4 0xD9E69A05 EQ PUSH1 0x6B JUMPI DUP1 PUSH4 0xE02A4DFD EQ PUSH1 0x72 JUMPI JUMPDEST PUSH1 0x0 DUP1 REVERT JUMPDEST PUSH1 0x52 PUSH1 0x5 DUP2 JUMP JUMPDEST PUSH1 0x40 MLOAD SWAP1 DUP2 MSTORE PUSH1 0x20 ADD PUSH1 0x40 MLOAD DUP1 SWAP2 SUB SWAP1 RETURN JUMPDEST PUSH1 0x52 PUSH1 0x50 DUP2 JUMP JUMPDEST PUSH1 0x52 PUSH1 0x96 DUP2 JUMP JUMPDEST PUSH1 0x52 PUSH3 0x278D00 DUP2 JUMP INVALID LOG2 PUSH5 0x6970667358 0x22 SLT KECCAK256 0xD0 PUSH23 0x5AEF5C53C815AA2561427AF4EBC79C3088B03DE7D5CFF7 SIGNEXTEND PUSH32 0x933435EF4664736F6C6343000818003300000000000000000000000000000000 "
        },
        "methodIdentifiers": {
          "BORROWABLE_RATIO()": "6e35f124",
          "COLLATERAL_RATIO()": "d9e69a05",
          "INTEREST_RATE()": "5b72a33a",
          "LOAN_DURATION()": "e02a4dfd"
        }
      }
    }
  }
}