{
  "_format": "hh-sol-artifact-1",
  "contractName": "CoreLoanPlatform",
  "sourceName": "contracts/CoreLoanPlatform.sol",
  "abi": [
    {
      "inputs": [
        {
          "internalType": "address",
          "name": "_USD",
          "type": "address"
        },
        {
          "internalType": "address",
          "name": "_BTC",
          "type": "address"
        }
      ],
      "stateMutability": "nonpayable",
      "type": "constructor"
    },
    {
      "inputs": [
        {
          "internalType": "address",
          "name": "target",
          "type": "address"
        }
      ],
      "name": "AddressEmptyCode",
      "type": "error"
    },
    {
      "inputs": [
        {
          "internalType": "address",
          "name": "account",
          "type": "address"
        }
      ],
      "name": "AddressInsufficientBalance",
      "type": "error"
    },
    {
      "inputs": [],
      "name": "FailedInnerCall",
      "type": "error"
    },
    {
      "inputs": [
        {
          "internalType": "address",
          "name": "owner",
          "type": "address"
        }
      ],
      "name": "OwnableInvalidOwner",
      "type": "error"
    },
    {
      "inputs": [
        {
          "internalType": "address",
          "name": "account",
          "type": "address"
        }
      ],
      "name": "OwnableUnauthorizedAccount",
      "type": "error"
    },
    {
      "inputs": [
        {
          "internalType": "address",
          "name": "token",
          "type": "address"
        }
      ],
      "name": "SafeERC20FailedOperation",
      "type": "error"
    },
    {
      "anonymous": false,
      "inputs": [
        {
          "indexed": true,
          "internalType": "address",
          "name": "lender",
          "type": "address"
        },
        {
          "indexed": false,
          "internalType": "uint256",
          "name": "amount",
          "type": "uint256"
        }
      ],
      "name": "BTCDeposited",
      "type": "event"
    },
    {
      "anonymous": false,
      "inputs": [
        {
          "indexed": true,
          "internalType": "address",
          "name": "lender",
          "type": "address"
        },
        {
          "indexed": false,
          "internalType": "uint256",
          "name": "amount",
          "type": "uint256"
        }
      ],
      "name": "BTCWithdrawn",
      "type": "event"
    },
    {
      "anonymous": false,
      "inputs": [
        {
          "indexed": true,
          "internalType": "address",
          "name": "user",
          "type": "address"
        },
        {
          "indexed": false,
          "internalType": "uint256",
          "name": "amount",
          "type": "uint256"
        }
      ],
      "name": "CollateralDeposited",
      "type": "event"
    },
    {
      "anonymous": false,
      "inputs": [
        {
          "indexed": true,
          "internalType": "address",
          "name": "user",
          "type": "address"
        },
        {
          "indexed": false,
          "internalType": "uint256",
          "name": "amount",
          "type": "uint256"
        }
      ],
      "name": "CollateralWithdrawn",
      "type": "event"
    },
    {
      "anonymous": false,
      "inputs": [
        {
          "indexed": true,
          "internalType": "address",
          "name": "borrower",
          "type": "address"
        },
        {
          "indexed": false,
          "internalType": "uint256",
          "name": "amount",
          "type": "uint256"
        },
        {
          "indexed": false,
          "internalType": "uint256",
          "name": "interest",
          "type": "uint256"
        }
      ],
      "name": "LoanRepaid",
      "type": "event"
    },
    {
      "anonymous": false,
      "inputs": [
        {
          "indexed": true,
          "internalType": "address",
          "name": "borrower",
          "type": "address"
        },
        {
          "indexed": false,
          "internalType": "uint256",
          "name": "amount",
          "type": "uint256"
        },
        {
          "indexed": false,
          "internalType": "uint256",
          "name": "collateral",
          "type": "uint256"
        }
      ],
      "name": "LoanTaken",
      "type": "event"
    },
    {
      "anonymous": false,
      "inputs": [
        {
          "indexed": true,
          "internalType": "address",
          "name": "previousOwner",
          "type": "address"
        },
        {
          "indexed": true,
          "internalType": "address",
          "name": "newOwner",
          "type": "address"
        }
      ],
      "name": "OwnershipTransferred",
      "type": "event"
    },
    {
      "inputs": [],
      "name": "BORROWABLE_RATIO",
      "outputs": [
        {
          "internalType": "uint256",
          "name": "",
          "type": "uint256"
        }
      ],
      "stateMutability": "view",
      "type": "function"
    },
    {
      "inputs": [],
      "name": "BTC",
      "outputs": [
        {
          "internalType": "contract IERC20",
          "name": "",
          "type": "address"
        }
      ],
      "stateMutability": "view",
      "type": "function"
    },
    {
      "inputs": [],
      "name": "COLLATERAL_RATIO",
      "outputs": [
        {
          "internalType": "uint256",
          "name": "",
          "type": "uint256"
        }
      ],
      "stateMutability": "view",
      "type": "function"
    },
    {
      "inputs": [],
      "name": "INTEREST_RATE",
      "outputs": [
        {
          "internalType": "uint256",
          "name": "",
          "type": "uint256"
        }
      ],
      "stateMutability": "view",
      "type": "function"
    },
    {
      "inputs": [],
      "name": "LOAN_DURATION",
      "outputs": [
        {
          "internalType": "uint256",
          "name": "",
          "type": "uint256"
        }
      ],
      "stateMutability": "view",
      "type": "function"
    },
    {
      "inputs": [],
      "name": "USD",
      "outputs": [
        {
          "internalType": "contract IERC20",
          "name": "",
          "type": "address"
        }
      ],
      "stateMutability": "view",
      "type": "function"
    },
    {
      "inputs": [
        {
          "internalType": "uint256",
          "name": "amount",
          "type": "uint256"
        }
      ],
      "name": "borrowBTC",
      "outputs": [],
      "stateMutability": "nonpayable",
      "type": "function"
    },
    {
      "inputs": [
        {
          "internalType": "address",
          "name": "user",
          "type": "address"
        }
      ],
      "name": "calculateInterest",
      "outputs": [
        {
          "internalType": "uint256",
          "name": "",
          "type": "uint256"
        }
      ],
      "stateMutability": "view",
      "type": "function"
    },
    {
      "inputs": [
        {
          "internalType": "uint256",
          "name": "amount",
          "type": "uint256"
        }
      ],
      "name": "depositBTC",
      "outputs": [],
      "stateMutability": "nonpayable",
      "type": "function"
    },
    {
      "inputs": [
        {
          "internalType": "uint256",
          "name": "amount",
          "type": "uint256"
        }
      ],
      "name": "depositCollateral",
      "outputs": [],
      "stateMutability": "nonpayable",
      "type": "function"
    },
    {
      "inputs": [
        {
          "internalType": "address",
          "name": "user",
          "type": "address"
        }
      ],
      "name": "getBorrowableAmount",
      "outputs": [
        {
          "internalType": "uint256",
          "name": "",
          "type": "uint256"
        }
      ],
      "stateMutability": "view",
      "type": "function"
    },
    {
      "inputs": [],
      "name": "getCurrentApy",
      "outputs": [
        {
          "internalType": "uint256",
          "name": "",
          "type": "uint256"
        }
      ],
      "stateMutability": "pure",
      "type": "function"
    },
    {
      "inputs": [
        {
          "internalType": "address",
          "name": "lender",
          "type": "address"
        }
      ],
      "name": "getLenderBalance",
      "outputs": [
        {
          "internalType": "uint256",
          "name": "",
          "type": "uint256"
        }
      ],
      "stateMutability": "view",
      "type": "function"
    },
    {
      "inputs": [
        {
          "internalType": "address",
          "name": "borrower",
          "type": "address"
        }
      ],
      "name": "getLoanDetails",
      "outputs": [
        {
          "components": [
            {
              "internalType": "uint256",
              "name": "amount",
              "type": "uint256"
            },
            {
              "internalType": "uint256",
              "name": "collateral",
              "type": "uint256"
            },
            {
              "internalType": "uint256",
              "name": "timestamp",
              "type": "uint256"
            },
            {
              "internalType": "bool",
              "name": "active",
              "type": "bool"
            }
          ],
          "internalType": "struct CoreLoanPlatform.Loan",
          "name": "",
          "type": "tuple"
        }
      ],
      "stateMutability": "view",
      "type": "function"
    },
    {
      "inputs": [],
      "name": "getTotalBorrowed",
      "outputs": [
        {
          "internalType": "uint256",
          "name": "",
          "type": "uint256"
        }
      ],
      "stateMutability": "view",
      "type": "function"
    },
    {
      "inputs": [],
      "name": "getTotalStaked",
      "outputs": [
        {
          "internalType": "uint256",
          "name": "",
          "type": "uint256"
        }
      ],
      "stateMutability": "view",
      "type": "function"
    },
    {
      "inputs": [
        {
          "internalType": "address",
          "name": "user",
          "type": "address"
        }
      ],
      "name": "getUserBorrowed",
      "outputs": [
        {
          "internalType": "uint256",
          "name": "",
          "type": "uint256"
        }
      ],
      "stateMutability": "view",
      "type": "function"
    },
    {
      "inputs": [
        {
          "internalType": "address",
          "name": "user",
          "type": "address"
        }
      ],
      "name": "getUserCollateral",
      "outputs": [
        {
          "internalType": "uint256",
          "name": "",
          "type": "uint256"
        }
      ],
      "stateMutability": "view",
      "type": "function"
    },
    {
      "inputs": [
        {
          "internalType": "address",
          "name": "user",
          "type": "address"
        }
      ],
      "name": "getUserStaked",
      "outputs": [
        {
          "internalType": "uint256",
          "name": "",
          "type": "uint256"
        }
      ],
      "stateMutability": "view",
      "type": "function"
    },
    {
      "inputs": [
        {
          "internalType": "address",
          "name": "",
          "type": "address"
        }
      ],
      "name": "lenderBalances",
      "outputs": [
        {
          "internalType": "uint256",
          "name": "",
          "type": "uint256"
        }
      ],
      "stateMutability": "view",
      "type": "function"
    },
    {
      "inputs": [
        {
          "internalType": "address",
          "name": "",
          "type": "address"
        }
      ],
      "name": "loans",
      "outputs": [
        {
          "internalType": "uint256",
          "name": "amount",
          "type": "uint256"
        },
        {
          "internalType": "uint256",
          "name": "collateral",
          "type": "uint256"
        },
        {
          "internalType": "uint256",
          "name": "timestamp",
          "type": "uint256"
        },
        {
          "internalType": "bool",
          "name": "active",
          "type": "bool"
        }
      ],
      "stateMutability": "view",
      "type": "function"
    },
    {
      "inputs": [],
      "name": "owner",
      "outputs": [
        {
          "internalType": "address",
          "name": "",
          "type": "address"
        }
      ],
      "stateMutability": "view",
      "type": "function"
    },
    {
      "inputs": [],
      "name": "renounceOwnership",
      "outputs": [],
      "stateMutability": "nonpayable",
      "type": "function"
    },
    {
      "inputs": [
        {
          "internalType": "address",
          "name": "user",
          "type": "address"
        }
      ],
      "name": "repayLoan",
      "outputs": [],
      "stateMutability": "nonpayable",
      "type": "function"
    },
    {
      "inputs": [
        {
          "internalType": "address",
          "name": "newOwner",
          "type": "address"
        }
      ],
      "name": "transferOwnership",
      "outputs": [],
      "stateMutability": "nonpayable",
      "type": "function"
    },
    {
      "inputs": [
        {
          "internalType": "address",
          "name": "",
          "type": "address"
        }
      ],
      "name": "userCollateral",
      "outputs": [
        {
          "internalType": "uint256",
          "name": "",
          "type": "uint256"
        }
      ],
      "stateMutability": "view",
      "type": "function"
    },
    {
      "inputs": [
        {
          "internalType": "uint256",
          "name": "amount",
          "type": "uint256"
        }
      ],
      "name": "withdrawBTC",
      "outputs": [],
      "stateMutability": "nonpayable",
      "type": "function"
    },
    {
      "inputs": [
        {
          "internalType": "uint256",
          "name": "amount",
          "type": "uint256"
        }
      ],
      "name": "withdrawCollateral",
      "outputs": [],
      "stateMutability": "nonpayable",
      "type": "function"
    }
  ],
  "bytecode": "0x60c0604052600060015560006002553480156200001b57600080fd5b506040516200179c3803806200179c8339810160408190526200003e9162000166565b33806200006657604051631e4fbdf760e01b8152600060048201526024015b60405180910390fd5b6200007181620000f9565b506001600160a01b038216158015906200009357506001600160a01b03811615155b620000e15760405162461bcd60e51b815260206004820152601760248201527f496e76616c696420746f6b656e2061646472657373657300000000000000000060448201526064016200005d565b6001600160a01b039182166080521660a0526200019e565b600080546001600160a01b038381166001600160a01b0319831681178455604051919092169283917f8be0079c531659141344cd1fd0a4f28419497f9722a3daafe3b4186f6b6457e09190a35050565b80516001600160a01b03811681146200016157600080fd5b919050565b600080604083850312156200017a57600080fd5b620001858362000149565b9150620001956020840162000149565b90509250929050565b60805160a0516115a7620001f560003960008181610241015281816105ba015281816109a501528181610a6201528181610dcb0152610ef1015260008181610202015281816108060152610b4d01526115a76000f3fe608060405234801561001057600080fd5b50600436106101c45760003560e01c8063a6b6d798116100f9578063e02a4dfd11610097578063e8a7da8e11610071578063e8a7da8e14610404578063f2fde38b1461044c578063f4925de51461045f578063f69f1e4a1461046657600080fd5b8063e02a4dfd146103d4578063e11932cf146103de578063e86ef40b146103f157600080fd5b8063bd09085a116100d3578063bd09085a14610390578063d1a40564146103b9578063d9e69a05146103cc578063dac3fc3f1461039057600080fd5b8063a6b6d79814610341578063b6f7132f14610354578063bad4a01f1461037d57600080fd5b8063691d1eb31161016657806373b4086b1161014057806373b4086b146102a15780638da5cb5b146102fd57806390b4588b1461030e578063a27a944d1461032157600080fd5b8063691d1eb31461027e5780636e35f12414610291578063715018a61461029957600080fd5b80631bf6c21b116101a25780631bf6c21b146101fd5780632792949d1461023c5780635b72a33a146102635780636112fe2e1461026b57600080fd5b80630307c4a1146101c95780630917e776146101e0578063190ef1e6146101e8575b600080fd5b6002545b6040519081526020015b60405180910390f35b6001546101cd565b6101fb6101f6366004611450565b610486565b005b6102247f000000000000000000000000000000000000000000000000000000000000000081565b6040516001600160a01b0390911681526020016101d7565b6102247f000000000000000000000000000000000000000000000000000000000000000081565b6101cd600581565b6101fb610279366004611479565b610644565b6101cd61028c366004611450565b610868565b6101cd605081565b6101fb6108a0565b6102db6102af366004611450565b600360208190526000918252604090912080546001820154600283015492909301549092919060ff1684565b60408051948552602085019390935291830152151560608201526080016101d7565b6000546001600160a01b0316610224565b6101fb61031c366004611479565b6108b4565b6101cd61032f366004611450565b60056020526000908152604090205481565b6101fb61034f366004611479565b610a05565b6101cd610362366004611450565b6001600160a01b031660009081526004602052604090205490565b6101fb61038b366004611479565b610af0565b6101cd61039e366004611450565b6001600160a01b031660009081526005602052604090205490565b6101fb6103c7366004611479565b610bcb565b6101cd609681565b6101cd62278d0081565b6101cd6103ec366004611450565b610f60565b6101cd6103ff366004611450565b610fe2565b610417610412366004611450565b611018565b6040516101d7919081518152602080830151908201526040808301519082015260609182015115159181019190915260800190565b6101fb61045a366004611450565b611095565b60056101cd565b6101cd610474366004611450565b60046020526000908152604090205481565b6001600160a01b03811660009081526003602081905260409091209081015460ff166104f95760405162461bcd60e51b815260206004820152600e60248201527f4e6f20616374697665206c6f616e00000000000000000000000000000000000060448201526064015b60405180910390fd5b60006201518082600201544261050f91906114a8565b61051991906114bb565b9050601e81111561056c5760405162461bcd60e51b815260206004820152601e60248201527f4c6f616e206475726174696f6e2065786365656465642033302064617973000060448201526064016104f0565b6000618e94826005856000015461058391906114dd565b61058d91906114dd565b61059791906114bb565b905060008184600001546105ab91906114f4565b90506105e26001600160a01b037f0000000000000000000000000000000000000000000000000000000000000000168630846110ec565b60038401805460ff1916905583546002546105fd91906114a8565b6002558354604080519182526020820184905233917fc7ce0a35f17b490de2a317e7fecb2cae86b1abffb03800b2f492823521382698910160405180910390a25050505050565b600081116106945760405162461bcd60e51b815260206004820152601d60248201527f416d6f756e74206d7573742062652067726561746572207468616e203000000060448201526064016104f0565b336000908152600460205260409020548111156106f35760405162461bcd60e51b815260206004820152601760248201527f496e73756666696369656e7420636f6c6c61746572616c00000000000000000060448201526064016104f0565b3360009081526003602081905260408220015460ff16610714576000610725565b336000908152600360205260409020545b9050600060646107366096846114dd565b61074091906114bb565b3360009081526004602052604090205490915081906107609085906114a8565b10156107d45760405162461bcd60e51b815260206004820152602860248201527f5769746864726177616c20776f756c6420756e646572636f6c6c61746572616c60448201527f697a65206c6f616e00000000000000000000000000000000000000000000000060648201526084016104f0565b33600090815260046020526040812080548592906107f39084906114a8565b9091555061082d90506001600160a01b037f000000000000000000000000000000000000000000000000000000000000000016338561116e565b60405183815233907fc30fcfbcaac9e0deffa719714eaa82396ff506a0d0d0eebe170830177288715d906020015b60405180910390a2505050565b6001600160a01b038116600090815260046020526040812054606490610890906050906114dd565b61089a91906114bb565b92915050565b6108a86111a4565b6108b260006111ea565b565b600081116109045760405162461bcd60e51b815260206004820152601d60248201527f416d6f756e74206d7573742062652067726561746572207468616e203000000060448201526064016104f0565b336000908152600560205260409020548111156109635760405162461bcd60e51b815260206004820152601460248201527f496e73756666696369656e742062616c616e636500000000000000000000000060448201526064016104f0565b33600090815260056020526040812080548392906109829084906114a8565b90915550506001546109959082906114a8565b6001556109cc6001600160a01b037f000000000000000000000000000000000000000000000000000000000000000016338361116e565b60405181815233907f46cb947848d6e66f42fd865aff4e0b9765da557ed05874db5a3c931ccea58ef1906020015b60405180910390a250565b60008111610a555760405162461bcd60e51b815260206004820152601d60248201527f416d6f756e74206d7573742062652067726561746572207468616e203000000060448201526064016104f0565b610a8a6001600160a01b037f0000000000000000000000000000000000000000000000000000000000000000163330846110ec565b3360009081526005602052604081208054839290610aa99084906114f4565b9091555050600154610abc9082906114f4565b60015560405181815233907ec876900062bf6768530bd9be84c146f5c051f4a50a5bf7fbcdd9ed4c8fb154906020016109fa565b60008111610b405760405162461bcd60e51b815260206004820152601d60248201527f416d6f756e74206d7573742062652067726561746572207468616e203000000060448201526064016104f0565b610b756001600160a01b037f0000000000000000000000000000000000000000000000000000000000000000163330846110ec565b3360009081526004602052604081208054839290610b949084906114f4565b909155505060405181815233907fd7243f6f8212d5188fd054141cf6ea89cfc0d91facb8c3afe2f88a1358480142906020016109fa565b60008111610c1b5760405162461bcd60e51b815260206004820152601d60248201527f416d6f756e74206d7573742062652067726561746572207468616e203000000060448201526064016104f0565b336000908152600360208190526040909120015460ff1615610ca55760405162461bcd60e51b815260206004820152602260248201527f4578697374696e67206c6f616e206d757374206265207265706169642066697260448201527f737400000000000000000000000000000000000000000000000000000000000060648201526084016104f0565b60006064610cb46096846114dd565b610cbe91906114bb565b33600090815260046020526040902054909150811115610d205760405162461bcd60e51b815260206004820152601760248201527f496e73756666696369656e7420636f6c6c61746572616c00000000000000000060448201526064016104f0565b33600090815260046020526040812054606490610d3f906050906114dd565b610d4991906114bb565b905080831115610d9b5760405162461bcd60e51b815260206004820152601b60248201527f426f72726f7720616d6f756e742065786365656473206c696d6974000000000060448201526064016104f0565b6040517f70a0823100000000000000000000000000000000000000000000000000000000815230600482015283907f00000000000000000000000000000000000000000000000000000000000000006001600160a01b0316906370a0823190602401602060405180830381865afa158015610e1a573d6000803e3d6000fd5b505050506040513d601f19601f82011682018060405250810190610e3e9190611507565b1015610e8c5760405162461bcd60e51b815260206004820152601c60248201527f496e73756666696369656e742042544320696e20636f6e74726163740000000060448201526064016104f0565b604080516080810182528481526020808201858152428385019081526001606085018181523360008181526003968790529790972095518655925190850155516002840155519101805460ff1916911515919091179055610f18906001600160a01b037f000000000000000000000000000000000000000000000000000000000000000016908561116e565b82600254610f2691906114f4565b600255604080518481526020810184905233917e6b9bb4766cf5ab74b890df959e4fad0e54b1c3885e49c9541d36253a6e39e6910161085b565b6001600160a01b038116600090815260036020819052604082209081015460ff1615610fdc57600062015180826002015442610f9c91906114a8565b610fa691906114bb565b90506000618e948260058560000154610fbf91906114dd565b610fc991906114dd565b610fd391906114bb565b95945050505050565b50919050565b6001600160a01b038116600090815260036020819052604082209081015460ff161561100f575492915050565b50600092915050565b61104560405180608001604052806000815260200160008152602001600081526020016000151581525090565b506001600160a01b031660009081526003602081815260409283902083516080810185528154815260018201549281019290925260028101549382019390935291015460ff161515606082015290565b61109d6111a4565b6001600160a01b0381166110e0576040517f1e4fbdf7000000000000000000000000000000000000000000000000000000008152600060048201526024016104f0565b6110e9816111ea565b50565b6040516001600160a01b0384811660248301528381166044830152606482018390526111689186918216906323b872dd906084015b604051602081830303815290604052915060e01b6020820180517bffffffffffffffffffffffffffffffffffffffffffffffffffffffff8381831617835250505050611252565b50505050565b6040516001600160a01b0383811660248301526044820183905261119f91859182169063a9059cbb90606401611121565b505050565b6000546001600160a01b031633146108b2576040517f118cdaa70000000000000000000000000000000000000000000000000000000081523360048201526024016104f0565b600080546001600160a01b038381167fffffffffffffffffffffffff0000000000000000000000000000000000000000831681178455604051919092169283917f8be0079c531659141344cd1fd0a4f28419497f9722a3daafe3b4186f6b6457e09190a35050565b60006112676001600160a01b038416836112ce565b9050805160001415801561128c57508080602001905181019061128a9190611520565b155b1561119f576040517f5274afe70000000000000000000000000000000000000000000000000000000081526001600160a01b03841660048201526024016104f0565b60606112dc838360006112e3565b9392505050565b606081471015611321576040517fcd7860590000000000000000000000000000000000000000000000000000000081523060048201526024016104f0565b600080856001600160a01b0316848660405161133d9190611542565b60006040518083038185875af1925050503d806000811461137a576040519150601f19603f3d011682016040523d82523d6000602084013e61137f565b606091505b509150915061138f868383611399565b9695505050505050565b6060826113ae576113a98261140e565b6112dc565b81511580156113c557506001600160a01b0384163b155b15611407576040517f9996b3150000000000000000000000000000000000000000000000000000000081526001600160a01b03851660048201526024016104f0565b50806112dc565b80511561141e5780518082602001fd5b6040517f1425ea4200000000000000000000000000000000000000000000000000000000815260040160405180910390fd5b60006020828403121561146257600080fd5b81356001600160a01b03811681146112dc57600080fd5b60006020828403121561148b57600080fd5b5035919050565b634e487b7160e01b600052601160045260246000fd5b8181038181111561089a5761089a611492565b6000826114d857634e487b7160e01b600052601260045260246000fd5b500490565b808202811582820484141761089a5761089a611492565b8082018082111561089a5761089a611492565b60006020828403121561151957600080fd5b5051919050565b60006020828403121561153257600080fd5b815180151581146112dc57600080fd5b6000825160005b818110156115635760208186018101518583015201611549565b50600092019182525091905056fea2646970667358221220bd75b86aa7b0c042f2c45674811cb76fc642b18b93711425b858840a43fff91964736f6c63430008180033",
  "linkReferences": {},
  "deployedLinkReferences": {}
}